{
  "contractName": "Bank",
  "abi": [
    {
      "inputs": [],
      "stateMutability": "nonpayable",
      "type": "constructor"
    },
    {
      "anonymous": false,
      "inputs": [
        {
          "indexed": false,
          "internalType": "uint256",
          "name": "_accountNumber",
          "type": "uint256"
        },
        {
          "indexed": false,
          "internalType": "bytes32",
          "name": "_name",
          "type": "bytes32"
        },
        {
          "indexed": false,
          "internalType": "bytes32",
          "name": "_location",
          "type": "bytes32"
        },
        {
          "indexed": false,
          "internalType": "uint256",
          "name": "_createdAt",
          "type": "uint256"
        },
        {
          "indexed": false,
          "internalType": "uint256",
          "name": "_balance",
          "type": "uint256"
        }
      ],
      "name": "AccountCreated",
      "type": "event"
    },
    {
      "inputs": [],
      "name": "accountNumber",
      "outputs": [
        {
          "internalType": "uint256",
          "name": "",
          "type": "uint256"
        }
      ],
      "stateMutability": "view",
      "type": "function",
      "constant": true
    },
    {
      "inputs": [
        {
          "internalType": "uint256",
          "name": "",
          "type": "uint256"
        }
      ],
      "name": "accounts",
      "outputs": [
        {
          "internalType": "uint256",
          "name": "serial",
          "type": "uint256"
        },
        {
          "internalType": "uint256",
          "name": "createdAt",
          "type": "uint256"
        },
        {
          "internalType": "string",
          "name": "name",
          "type": "string"
        },
        {
          "internalType": "string",
          "name": "location",
          "type": "string"
        },
        {
          "internalType": "address",
          "name": "creator",
          "type": "address"
        },
        {
          "internalType": "uint256",
          "name": "balance",
          "type": "uint256"
        },
        {
          "internalType": "bool",
          "name": "doesExist",
          "type": "bool"
        }
      ],
      "stateMutability": "view",
      "type": "function",
      "constant": true
    },
    {
      "inputs": [],
      "name": "bankBalance",
      "outputs": [
        {
          "internalType": "uint256",
          "name": "",
          "type": "uint256"
        }
      ],
      "stateMutability": "view",
      "type": "function",
      "constant": true
    },
    {
      "inputs": [
        {
          "internalType": "address payable",
          "name": "_creator",
          "type": "address"
        },
        {
          "internalType": "string",
          "name": "_name",
          "type": "string"
        },
        {
          "internalType": "string",
          "name": "_location",
          "type": "string"
        }
      ],
      "name": "createAccount",
      "outputs": [],
      "stateMutability": "payable",
      "type": "function",
      "payable": true
    },
    {
      "inputs": [
        {
          "internalType": "uint256",
          "name": "_serial",
          "type": "uint256"
        }
      ],
      "name": "getBalance",
      "outputs": [
        {
          "internalType": "uint256",
          "name": "",
          "type": "uint256"
        }
      ],
      "stateMutability": "view",
      "type": "function",
      "constant": true
    },
    {
      "inputs": [
        {
          "internalType": "address payable",
          "name": "_account",
          "type": "address"
        }
      ],
      "name": "getSenderBalance",
      "outputs": [
        {
          "internalType": "uint256",
          "name": "",
          "type": "uint256"
        }
      ],
      "stateMutability": "view",
      "type": "function",
      "constant": true
    },
    {
      "inputs": [],
      "name": "getOwner",
      "outputs": [
        {
          "internalType": "address",
          "name": "",
          "type": "address"
        }
      ],
      "stateMutability": "view",
      "type": "function",
      "constant": true
    },
    {
      "inputs": [
        {
          "internalType": "uint256",
          "name": "_serial",
          "type": "uint256"
        },
        {
          "internalType": "uint256",
          "name": "_amount",
          "type": "uint256"
        },
        {
          "internalType": "address payable",
          "name": "_creator",
          "type": "address"
        }
      ],
      "name": "addBalance",
      "outputs": [],
      "stateMutability": "payable",
      "type": "function",
      "payable": true
    },
    {
      "inputs": [
        {
          "internalType": "uint256",
          "name": "_serial",
          "type": "uint256"
        },
        {
          "internalType": "uint256",
          "name": "_amount",
          "type": "uint256"
        },
        {
          "internalType": "address payable",
          "name": "_creator",
          "type": "address"
        }
      ],
      "name": "withdrawBalance",
      "outputs": [
        {
          "internalType": "bool",
          "name": "_success",
          "type": "bool"
        }
      ],
      "stateMutability": "nonpayable",
      "type": "function"
    }
  ],
  "bytecode": "0x60806040526000805560006001553480156200001a57600080fd5b506040518060e00160405280600081526020014281526020016040518060400160405280600881526020017f457468657265616c00000000000000000000000000000000000000000000000081525081526020016040518060400160405280600c81526020017f4e4954204475726761707572000000000000000000000000000000000000000081525081526020013073ffffffffffffffffffffffffffffffffffffffff168152602001600081526020016001151581525060026000808152602001908152602001600020600082015181600001556020820151816001015560408201518160020190816200011191906200041e565b5060608201518160030190816200012991906200041e565b5060808201518160040160006101000a81548173ffffffffffffffffffffffffffffffffffffffff021916908373ffffffffffffffffffffffffffffffffffffffff16021790555060a0820151816005015560c08201518160060160006101000a81548160ff02191690831515021790555090505062000505565b600081519050919050565b7f4e487b7100000000000000000000000000000000000000000000000000000000600052604160045260246000fd5b7f4e487b7100000000000000000000000000000000000000000000000000000000600052602260045260246000fd5b600060028204905060018216806200022657607f821691505b6020821081036200023c576200023b620001de565b5b50919050565b60008190508160005260206000209050919050565b60006020601f8301049050919050565b600082821b905092915050565b600060088302620002a67fffffffffffffffffffffffffffffffffffffffffffffffffffffffffffffffff8262000267565b620002b2868362000267565b95508019841693508086168417925050509392505050565b6000819050919050565b6000819050919050565b6000620002ff620002f9620002f384620002ca565b620002d4565b620002ca565b9050919050565b6000819050919050565b6200031b83620002de565b620003336200032a8262000306565b84845462000274565b825550505050565b600090565b6200034a6200033b565b6200035781848462000310565b505050565b5b818110156200037f576200037360008262000340565b6001810190506200035d565b5050565b601f821115620003ce57620003988162000242565b620003a38462000257565b81016020851015620003b3578190505b620003cb620003c28562000257565b8301826200035c565b50505b505050565b600082821c905092915050565b6000620003f360001984600802620003d3565b1980831691505092915050565b60006200040e8383620003e0565b9150826002028217905092915050565b6200042982620001a4565b67ffffffffffffffff811115620004455762000444620001af565b5b6200045182546200020d565b6200045e82828562000383565b600060209050601f83116001811462000496576000841562000481578287015190505b6200048d858262000400565b865550620004fd565b601f198416620004a68662000242565b60005b82811015620004d057848901518255600182019150602085019450602081019050620004a9565b86831015620004f05784890151620004ec601f891682620003e0565b8355505b6001600288020188555050505b505050505050565b61116a80620005156000396000f3fe6080604052600436106100865760003560e01c80637cfa4dbc116100595780637cfa4dbc1461013a578063893d20e814610177578063e15cdcc4146101a2578063f2a40db8146101be578063fb3d47711461020157610086565b80631e0104391461008b57806328657aa5146100c8578063375974eb146100f35780634dbe44541461011e575b600080fd5b34801561009757600080fd5b506100b260048036038101906100ad9190610837565b61023e565b6040516100bf9190610873565b60405180910390f35b3480156100d457600080fd5b506100dd610263565b6040516100ea9190610873565b60405180910390f35b3480156100ff57600080fd5b50610108610269565b6040516101159190610873565b60405180910390f35b61013860048036038101906101339190610a32565b61026f565b005b34801561014657600080fd5b50610161600480360381019061015c9190610abd565b61041b565b60405161016e9190610873565b60405180910390f35b34801561018357600080fd5b5061018c61043c565b6040516101999190610b0b565b60405180910390f35b6101bc60048036038101906101b79190610b26565b610444565b005b3480156101ca57600080fd5b506101e560048036038101906101e09190610837565b610532565b6040516101f89796959493929190610c13565b60405180910390f35b34801561020d57600080fd5b5061022860048036038101906102239190610b26565b6106b1565b6040516102359190610c90565b60405180910390f35b6000806002600084815260200190815260200160002060050154905080915050919050565b60015481565b60005481565b60038373ffffffffffffffffffffffffffffffffffffffff1631106103db576000808154809291906102a090610cda565b91905055506040518060e0016040528060005481526020014281526020018381526020018281526020018473ffffffffffffffffffffffffffffffffffffffff16815260200160028152602001600115158152506002600080548152602001908152602001600020600082015181600001556020820151816001015560408201518160020190816103319190610f2e565b5060608201518160030190816103479190610f2e565b5060808201518160040160006101000a81548173ffffffffffffffffffffffffffffffffffffffff021916908373ffffffffffffffffffffffffffffffffffffffff16021790555060a0820151816005015560c08201518160060160006101000a81548160ff0219169083151502179055509050506002600160008282546103cf9190611000565b92505081905550610416565b6040517f08c379a000000000000000000000000000000000000000000000000000000000815260040161040d90611080565b60405180910390fd5b505050565b60008173ffffffffffffffffffffffffffffffffffffffff16319050919050565b600033905090565b6001670de0b6b3a76400008361045a91906110cf565b6104649190611000565b8173ffffffffffffffffffffffffffffffffffffffff1631106104f257670de0b6b3a76400008261049591906110cf565b6002600085815260200190815260200160002060050160008282546104ba9190611000565b92505081905550670de0b6b3a7640000826104d591906110cf565b600160008282546104e69190611000565b9250508190555061052d565b6040517f08c379a000000000000000000000000000000000000000000000000000000000815260040161052490611080565b60405180910390fd5b505050565b600260205280600052604060002060009150905080600001549080600101549080600201805461056190610d51565b80601f016020809104026020016040519081016040528092919081815260200182805461058d90610d51565b80156105da5780601f106105af576101008083540402835291602001916105da565b820191906000526020600020905b8154815290600101906020018083116105bd57829003601f168201915b5050505050908060030180546105ef90610d51565b80601f016020809104026020016040519081016040528092919081815260200182805461061b90610d51565b80156106685780601f1061063d57610100808354040283529160200191610668565b820191906000526020600020905b81548152906001019060200180831161064b57829003601f168201915b5050505050908060040160009054906101000a900473ffffffffffffffffffffffffffffffffffffffff16908060050154908060060160009054906101000a900460ff16905087565b60006001670de0b6b3a7640000846106c991906110cf565b6106d39190611000565b6002600086815260200190815260200160002060050154106107ab578173ffffffffffffffffffffffffffffffffffffffff166108fc849081150290604051600060405180830381858888f19350505050158015610735573d6000803e3d6000fd5b50670de0b6b3a76400008361074a91906110cf565b60026000868152602001908152602001600020600501600082825461076f9190611100565b92505081905550670de0b6b3a76400008361078a91906110cf565b6001600082825461079b9190611100565b92505081905550600190506107e6565b6040517f08c379a00000000000000000000000000000000000000000000000000000000081526004016107dd90611080565b60405180910390fd5b9392505050565b6000604051905090565b600080fd5b600080fd5b6000819050919050565b61081481610801565b811461081f57600080fd5b50565b6000813590506108318161080b565b92915050565b60006020828403121561084d5761084c6107f7565b5b600061085b84828501610822565b91505092915050565b61086d81610801565b82525050565b60006020820190506108886000830184610864565b92915050565b600073ffffffffffffffffffffffffffffffffffffffff82169050919050565b60006108b98261088e565b9050919050565b6108c9816108ae565b81146108d457600080fd5b50565b6000813590506108e6816108c0565b92915050565b600080fd5b600080fd5b6000601f19601f8301169050919050565b7f4e487b7100000000000000000000000000000000000000000000000000000000600052604160045260246000fd5b61093f826108f6565b810181811067ffffffffffffffff8211171561095e5761095d610907565b5b80604052505050565b60006109716107ed565b905061097d8282610936565b919050565b600067ffffffffffffffff82111561099d5761099c610907565b5b6109a6826108f6565b9050602081019050919050565b82818337600083830152505050565b60006109d56109d084610982565b610967565b9050828152602081018484840111156109f1576109f06108f1565b5b6109fc8482856109b3565b509392505050565b600082601f830112610a1957610a186108ec565b5b8135610a298482602086016109c2565b91505092915050565b600080600060608486031215610a4b57610a4a6107f7565b5b6000610a59868287016108d7565b935050602084013567ffffffffffffffff811115610a7a57610a796107fc565b5b610a8686828701610a04565b925050604084013567ffffffffffffffff811115610aa757610aa66107fc565b5b610ab386828701610a04565b9150509250925092565b600060208284031215610ad357610ad26107f7565b5b6000610ae1848285016108d7565b91505092915050565b6000610af58261088e565b9050919050565b610b0581610aea565b82525050565b6000602082019050610b206000830184610afc565b92915050565b600080600060608486031215610b3f57610b3e6107f7565b5b6000610b4d86828701610822565b9350506020610b5e86828701610822565b9250506040610b6f868287016108d7565b9150509250925092565b600081519050919050565b600082825260208201905092915050565b60005b83811015610bb3578082015181840152602081019050610b98565b60008484015250505050565b6000610bca82610b79565b610bd48185610b84565b9350610be4818560208601610b95565b610bed816108f6565b840191505092915050565b60008115159050919050565b610c0d81610bf8565b82525050565b600060e082019050610c28600083018a610864565b610c356020830189610864565b8181036040830152610c478188610bbf565b90508181036060830152610c5b8187610bbf565b9050610c6a6080830186610afc565b610c7760a0830185610864565b610c8460c0830184610c04565b98975050505050505050565b6000602082019050610ca56000830184610c04565b92915050565b7f4e487b7100000000000000000000000000000000000000000000000000000000600052601160045260246000fd5b6000610ce582610801565b91507fffffffffffffffffffffffffffffffffffffffffffffffffffffffffffffffff8203610d1757610d16610cab565b5b600182019050919050565b7f4e487b7100000000000000000000000000000000000000000000000000000000600052602260045260246000fd5b60006002820490506001821680610d6957607f821691505b602082108103610d7c57610d7b610d22565b5b50919050565b60008190508160005260206000209050919050565b60006020601f8301049050919050565b600082821b905092915050565b600060088302610de47fffffffffffffffffffffffffffffffffffffffffffffffffffffffffffffffff82610da7565b610dee8683610da7565b95508019841693508086168417925050509392505050565b6000819050919050565b6000610e2b610e26610e2184610801565b610e06565b610801565b9050919050565b6000819050919050565b610e4583610e10565b610e59610e5182610e32565b848454610db4565b825550505050565b600090565b610e6e610e61565b610e79818484610e3c565b505050565b5b81811015610e9d57610e92600082610e66565b600181019050610e7f565b5050565b601f821115610ee257610eb381610d82565b610ebc84610d97565b81016020851015610ecb578190505b610edf610ed785610d97565b830182610e7e565b50505b505050565b600082821c905092915050565b6000610f0560001984600802610ee7565b1980831691505092915050565b6000610f1e8383610ef4565b9150826002028217905092915050565b610f3782610b79565b67ffffffffffffffff811115610f5057610f4f610907565b5b610f5a8254610d51565b610f65828285610ea1565b600060209050601f831160018114610f985760008415610f86578287015190505b610f908582610f12565b865550610ff8565b601f198416610fa686610d82565b60005b82811015610fce57848901518255600182019150602085019450602081019050610fa9565b86831015610feb5784890151610fe7601f891682610ef4565b8355505b6001600288020188555050505b505050505050565b600061100b82610801565b915061101683610801565b925082820190508082111561102e5761102d610cab565b5b92915050565b7f496e73756666696369656e742046756e64730000000000000000000000000000600082015250565b600061106a601283610b84565b915061107582611034565b602082019050919050565b600060208201905081810360008301526110998161105d565b9050919050565b7f4e487b7100000000000000000000000000000000000000000000000000000000600052601260045260246000fd5b60006110da82610801565b91506110e583610801565b9250826110f5576110f46110a0565b5b828204905092915050565b600061110b82610801565b915061111683610801565b925082820390508181111561112e5761112d610cab565b5b9291505056fea26469706673582212203106015180ce10be0936a8adbb5cb375025b16236643232b76a754f317f2359964736f6c63430008110033",
  "immutableReferences": {},
  "source": "pragma solidity >=0.6.0 <0.9.0;\n\ncontract Bank {\n    uint256 public accountNumber = 0;\n    uint256 public bankBalance = 0;\n\n    struct Account {\n        uint256 serial;\n        uint256 createdAt;\n        string name;\n        string location;\n        address creator;\n        uint256 balance;\n        bool doesExist;\n    }\n\n    constructor() {\n        accounts[0] = Account(\n            0,\n            block.timestamp,\n            \"Ethereal\",\n            \"NIT Durgapur\",\n            address(this),\n            0,\n            true\n        );\n    }\n\n    mapping(uint256 => Account) public accounts;\n\n    event AccountCreated(\n        uint256 _accountNumber,\n        bytes32 _name,\n        bytes32 _location,\n        uint256 _createdAt,\n        uint256 _balance\n    );\n\n    function createAccount(\n        address payable _creator,\n        string memory _name,\n        string memory _location\n    ) public payable {\n        if (_creator.balance >= 3) {\n            accountNumber++;\n            accounts[accountNumber] = Account(\n                accountNumber,\n                block.timestamp,\n                _name,\n                _location,\n                _creator,\n                2,\n                true\n            );\n            bankBalance += 2;\n        } else {\n            revert(\"Insufficient Funds\");\n        }\n    }\n\n    function getBalance(uint256 _serial) public view returns (uint256) {\n        uint256 bal = accounts[_serial].balance;\n        return bal;\n    }\n\n    function getSenderBalance(address payable _account)\n        external\n        view\n        returns (uint256)\n    {\n        return _account.balance;\n    }\n\n    //Function to get the owner\n    function getOwner() public view returns (address) {\n        return msg.sender;\n    }\n\n    function addBalance(\n        uint256 _serial,\n        uint256 _amount,\n        address payable _creator\n    ) public payable {\n        if (_creator.balance >= _amount / 1000000000000000000 + 1) {\n            accounts[_serial].balance += _amount / 1000000000000000000;\n            bankBalance += _amount / 1000000000000000000;\n        } else {\n            revert(\"Insufficient Funds\");\n        }\n    }\n\n    function withdrawBalance(\n        uint256 _serial,\n        uint256 _amount,\n        address payable _creator\n    ) external returns (bool _success) {\n        if (accounts[_serial].balance >= _amount / 1000000000000000000 + 1) {\n            _creator.transfer(_amount);\n            accounts[_serial].balance -= _amount / 1000000000000000000;\n            bankBalance -= _amount / 1000000000000000000;\n            return true;\n        } else {\n            revert(\"Insufficient Funds\");\n        }\n    }\n}\n",
  "sourcePath": "c:\\Users\\maria\\Desktop\\BlockchainExercise\\Assignment2\\EtherBank_Dapp\\contracts\\Bank.sol",
  "compiler": {
    "name": "solc",
    "version": "0.8.17+commit.8df45f5f.Emscripten.clang"
  },
  "schemaVersion": "3.4.10",
  "updatedAt": "2022-10-28T14:31:53.981Z",
  "networkType": "ethereum",
  "devdoc": {
    "kind": "dev",
    "methods": {},
    "version": 1
  },
  "userdoc": {
    "kind": "user",
    "methods": {},
    "version": 1
  }
}